:020000040800F2
:10000000E8060020D5000008FD1B0008DF1A0008E4
:1000100000000000000000000000000000000000E0
:10002000000000000000000000000000E11E0008C9
:100030000000000000000000311C0008E31E000862
:10004000E700000800000000E7000008E7000008E3
:10005000E7000008E7000008E7000008E7000008E4
:1000600000000000E7000008E7000008E7000008C3
:10007000E7000008E7000008E700000800000000B3
:10008000E70000080000000000000000E700000892
:1000900000000000E7000008E7000008E700000893
:1000A000E7000008E7000008E7000008E700000894
:1000B0000926000800000000000000000000000009
:1000C0000348854600F0AAFA00480047ED2F0008D3
:1000D000E80600200448804704480047FEE7FEE7A2
:1000E000FEE7FEE7FEE7FEE7451F0008C100000847
:1000F00030B50B46014600202022012409E00D46C0
:10010000D5409D4205D31D469540491B2546954047
:1001100040191546521E002DF1DC30BDD2B201E06F
:100120000270401C491EFBD270470022F6E710B552
:1001300013460A4604461946FFF7F0FF204610BD55
:100140000321001D401E037812021A43491EF9D5EF
:1001500010467047F0B50C465C4085B0E40FE407EC
:1001600003944C000026640859009446490802464E
:100170000296224321D062460A431ED06200570DE8
:100180004A000E032303550D012402462C49240581
:10019000781B1B0B360B4018234326436146009007
:1001A0001C46501AB44103D30098401C009002E052
:1001B000921800985B41002803DA0020014605B040
:1001C000F0BD0020012109050746864611E064467E
:1001D0001D46141BB54106D36546521BB3417446F8
:1001E00007430C43A646CD07400849082843921808
:1001F0005B4105460D43EAD11046184313D06046D3
:10020000194650407140084306D06046101AB34169
:1002100006D20122002306E000220123DB0702E0D0
:100220000122D2435310009874460105381C6141E5
:10023000029C039D0019694100F042F8BFE70000ED
:10024000FD0300000EB505490291002100910A4608
:100250000B46019100F041F803B000BD33040000EB
:10026000F0B51FB40646002082B005464024019137
:1002700000901BE0019922460F46304600F0F0F94D
:10028000049A059B801A994110D3104619462246BC
:1002900000F0D6F9361A8F4101972246012000213D
:1002A000009F00F0CDF938184D4100902046641EA3
:1002B0000028DFDC019B00982946324607B0F0BDDC
:1002C00010B5002B08DA0024401C614192185B41F4
:1002D0001A4301D14008400010BDF0B51FB482B0F0
:1002E00005460C0003D0084602F0CAF902E002F00D
:1002F000C7F92030024600902146284600F0A0F9B8
:10030000049B059A04460F4618431143084314D032
:10031000184610431BD0009840210A1A1846059928
:1003200000F09EF905460E46009A0599049800F0E3
:1003300087F9084305D0012004E02046394607B07C
:10034000F0BD0020C11705430E432C4337430099ED
:100350000E986305401A7905E40A00220C43FD0A51
:100360000A3002D500200146E9E70105101969416C
:100370000C9C0D9D00196941FFF7A2FFDFE700000B
:10038000F0B507460846584087B0C00F04904800B3
:100390000E46590040084908BC1A884105D2384623
:1003A00031461E4617460B46024658004008104389
:1003B0004CD0300D039040055900400D490D05907B
:1003C000401A0290402872DA18030121000B090537
:1003D0000843019004980092002805D001995242E8
:1003E0000020884100920190029840210A1A019948
:1003F000009800F025F905460C466B4607CB00F047
:1004000040F9C0197141039A0E0D0023D7175640C9
:100410001A467A40164344D0049A002A2DD0029AF4
:10042000012A039A15DC1205C01A914101263605EE
:10043000001C7141D20F059ED207009301920296D3
:100440002A462346FFF749FF07B0F0BD384631463C
:10045000FAE71605224A0F46B218C01AB741012121
:100460000905001C4F4100187F41114618187941B9
:10047000E20F10436D19644113E0E2076D08154364
:100480006408C2071443039A01261205C01A914159
:100490003605001C7141CE07400830434908C0189A
:1004A00051412A462346FFF70BFFCDE7FFE70498AB
:1004B00001224000C117121A00238B4104983146D3
:1004C000C417381AA141EEE730B40124E4076340B1
:1004D00030BC55E730B40124E407614030BC4FE73D
:1004E0000000E0FFF0B51FB488B00B990998002414
:1004F00048400999C00F490049080991C0070B9964
:100500000090490049080B9109990898A6460843AC
:100510001CD00B990A98084318D009980124400070
:10052000420D4800410D099824050003000B2043AB
:1005300009900B980003000B20430B9050181C49A6
:100540004018002201901446104605E000200146A4
:100550000DB0F0BD032801DA034600E003239C46FA
:10056000C11A0AAE0AE05F0008ADED5B4F00F75B11
:100570007D430027AA187C41491C5B1E6145F2DDC2
:10058000410004AB5A522104120C0A43240C401CB3
:100590000828DFDB019802900099704601910090D5
:1005A000059B049A07990698FFF797FED0E700008D
:1005B0000DFCFFFF4A0009030123090B1B0519432A
:1005C0000A4B10B5520D9A4202DA0020014610BDC6
:1005D000064B34339A4203DC9A1A00F041F810BDFE
:1005E000034BD21800F02CF810BD0000FF030000F0
:1005F000CDFBFFFF10B5002904DB0124E4074042D6
:100600008C412146002B04DB1C460123DB075242B0
:10061000A341994200D1904210BD0000064C012533
:10062000064E05E0E36807CC2B430C3C984710349A
:10063000B442F7D3FFF748FDD8320008F83200087B
:1006400010B5202A04DB0146203A9140002010BD5D
:10065000914020239C1A0346E3401943904010BD6B
:1006600010B5202A04DB0846203AD040002110BDF6
:100670000B46D340D0402024A21A9140084319468B
:1006800010BD10B5202A06DBCB170846203A1041D2
:10069000C1170B4306E00B461341D0402024A21A99
:1006A00091400843194610BD70B58C180578401C60
:1006B0006B075B0F01D10378401C2A1106D1027829
:1006C000401C03E006780E70401C491C5B1EF9D1EB
:1006D0002B0705D40023521E0DD40B70491CFAE7DA
:1006E0000378401CCB1A921C03E01D780D70491C46
:1006F0005B1C521EF9D5A142D8D3002070BD00006A
:10070000F8B5864C252020707820607002222146A2
:10071000D00101F0DDFAFF2002222146023001F073
:10072000D7FA01272770D5206070FF2002222146CA
:10073000033001F0CDFAFF2002222146043001F0FF
:10074000C7FA14202070FB206070FF20022221468F
:10075000053001F0BDFA0025257049206070FF20AA
:1007600002222146063001F0B3FA25700426667095
:100770000B20A070FF2003222146593001F0A8FA77
:100780004720207033206070FF20022221465A301B
:1007900001F09EFA6520207032206070FF20022256
:1007A00021465B3001F094FA0F2020702120607008
:1007B000FF20A57003222146623001F089FA17203C
:1007C0002070FF20677002222146143001F080FA69
:1007D000FF2002222146153001F07AFAFF20022282
:1007E0002146163001F074FA862020700D206070CA
:1007F000FF2002222146173001F06AFAFF20022270
:100800002146183001F064FAFF20022221461930F7
:1008100001F05EFA8A202070FF20012221460D306F
:1008200001F056FAFF20012221460E3001F050FA65
:10083000FF20012221460F3001F04AFA802020706B
:100840006070A070FF2003222146103001F040FAB2
:10085000FF2003222146113001F03AFAFF20032243
:100860002146123001F034FA2570FF206570022213
:100870002146223001F02CFAFF20022221462330AB
:1008800001F026FAFF2002222146243001F020FA4E
:10089000FF202070F0206070FF20022221462530CA
:1008A00001F016FAFF2002222146263001F010FA4C
:1008B000FF2002222146273001F00AFA4220FF27BA
:1008C0002070853701222146384601F001FA257053
:1008D00001222146781C01F0FBF9257001222146F6
:1008E000384601F0F5F92670322060701025FF209F
:1008F000A57003222146613001F0EAF9FF20A570BE
:1009000003222146643001F0E3F9DC20207001224B
:100910002146381F01F0DCF9F8BD0000400100203D
:1009200010B57D24E400204600F08CF8084801F062
:1009300085FE204600F086F80548523001F07EFE24
:10094000204600F07FF802488D3001F077FE10BDA0
:1009500003000020F8B5194CFF27E52581372570E5
:1009600001222146384601F0B3F9A2262670012261
:100970002146781C01F0ACF9FA20207001222146B2
:10098000B81C01F0A5F9FF20F53000F05BF82570E8
:1009900001222146384601F09BF9267001222146AA
:1009A000781C01F095F9772020706070A070FF200E
:1009B00003222146633001F08BF9F8BD400100208D
:1009C00070470000F8B501460024203101220A7169
:1009D0004B79022B03D00421C16301242DE003686D
:1009E0001D680E26B5431D6003681D686D086D0007
:1009F0001D60436C1D68FF260136B5431D60104B1A
:100A00005D68066C1C273E401746B7403D435D605D
:100A1000836CC56C5D60036D002B07D01E68FF25DD
:100A20000135AE431E60436D856D5D604A710022E5
:100A30000A71816B002900D088472046F8BD00006C
:100A40000000024070B5044600F0AEF80546601C98
:100A500002D004484068241800F0A6F8401BA042C9
:100A6000FAD370BDE4010020F0B5002388E0012234
:100A70009A409446144022007ED04C68022C01D04B
:100A8000122C0CD1DC08A40027183C6A5D07ED0E7F
:100A90000F26AE40B4430E69AE4026433E62056861
:100AA0005E000324B4400F79A543BF07BF0FB740D2
:100AB0002F4307604D68012D05D0022D03D0112D65
:100AC00001D0122D0ED18568CF68A543B7402F43C2
:100AD000876047686546AF430D79ED06ED0F9D4091
:100AE0003D434560C568A5438C68B4402C43C46051
:100AF0004C68E40043D59D08244CAD002F193C6E92
:100B00009D07EE0E0F25B540AC4305252D07A842E5
:100B100001D100250FE01E4DA84201D101250AE0B8
:100B20001C4DA84201D1022505E01B4DA84201D170
:100B3000032500E00525B5402543144C3D66134DC3
:100B400080352E684F689643FF0300D516432E600C
:100B50006E684F689643BF0300D516436E602568E4
:100B60004E689543F60200D51543256065684E68CA
:100B70009543B60202D500E001E0154365605B1CB9
:100B80000A681446DA4000D071E7F0BD0018024050
:100B90000004005000080050000C0050002A01D052
:100BA000816170478162704701488068704700002A
:100BB000E40100200248816842688918816070471A
:100BC000E401002010B50848002401688215114393
:100BD0000160204600F00AF8002801D0012401E05D
:100BE00000F028F8204610BD0020024070B50F4EDE
:100BF000002471680546002915D07D20C000FFF74C
:100C000077FA01460A480068FFF772FA00F00EFD15
:100C1000002808D1042D06D200222946401E00F0EB
:100C20002BF8356000E00124204670BDE40100206F
:100C3000F001002008B50948016801221143016054
:100C400000681040009005484038C26B01040A4318
:100C5000C263C06B0840009008BD00004010024015
:100C6000002805DBC106C90E012088400149086043
:100C70007047000000E100E010B501F019FD10BD63
:100C800010B50F4C216803225202914301432160A9
:100C9000C11FFF39FA390ED10A48062100684843BE
:100CA0000949FFF725FA401C02E0002805D0401E44
:100CB00061694905F9D4002010BD032010BD000072
:100CC00000700040F001002040420F00F8B50F46D0
:100CD000060043D04D4D28684007400FB84213D25C
:100CE0002868C008C00038432860FFF75DFF04464D
:100CF00005E0FFF759FF011B4548814261D828688C
:100D00004007400FB842F4D13068424C81070DD5FE
:100D1000400704D5A068072109030843A060A06824
:100D20000F2109028843B1680843A0603078C007EA
:100D300032D0706801280AD002280BD000280FD0CA
:100D40003449403103280ED0C969890704E021687D
:100D5000890301E021688901002906DB0120F8BD33
:100D600021684905F8E7096AEFE7A168C908C900E1
:100D70000143A160FFF718FF009006E0FFF714FFA2
:100D80000099411A224881421BD8A06838210840A6
:100D90007168C9008842F1D128684007400FB84205
:100DA00017D91A480168C908C90039430160FFF71B
:100DB000FBFE054607E0FFF7F7FE411B14488142A2
:100DC00001D90320F8BD114800684007400FB84220
:100DD000F1D13078400706D5A06807210903884380
:100DE000F1680843A06000F031F8A1683C2289094D
:100DF0001140094A515CC906C90EC840074908603C
:100E000007480068FFF7F2FEF8BD0000002002402E
:100E1000881300000010024078320008F001002022
:100E2000E40100200648074900688968064A490429
:100E3000490F8900515CC906C90EC84070470000BF
:100E4000F001002000100240B832000810B5204C1C
:100E5000A068204A8006400F16D0A0688006410F87
:100E6000501001290FD0A1688906490F022912D01C
:100E7000A0688006400F042823D0A0688006400F99
:100E8000032821D0002010BD206801218004400FDC
:100E90008140104612E0E1688B07E1689B0F49062C
:100EA000490F491C032B00D01046FFF721F9E168D8
:100EB0004904490E4843E168490F491CFFF718F9F6
:100EC00010BD0120C00310BD7D20000210BD000038
:100ED000001002400024F400F8B504007ED0207811
:100EE0003827C007EB4D002846D0A868E96838408D
:100EF0008907890F102802D008280BD001E00329A8
:100F000008D001206268000482420AD129680143A6
:100F1000296015E0286880032ED560680028DDD0A0
:100F20002AE0052301211B0489049A422A6802D180
:100F30000A432A60EAE782432A60286888432860D7
:100F4000606800280CD0FFF72FFE064604E0FFF78C
:100F50002BFE801B642873D828688003F7D50BE02C
:100F6000FFF722FE064604E0FFF71EFE801B642802
:100F7000F1D828688003F7D42078800769D5A8685D
:100F8000E96838408A070721920FC902102802D069
:100F9000002813D001E0022A10D0E068002846D0D3
:100FA000286888432169084328602868FF210131A7
:100FB00008432860FFF7F8FD06462CE02A68520532
:100FC00002D5E268002A89D06A687F231B029A430F
:100FD00063691B021A436A60002800E08DE00ED1AD
:100FE0002868884321690843286028680121800413
:100FF000400F8140A848FFF77BF8A8490860A8483F
:101000000068FFF7F3FD002877D122E0FFF7CCFD61
:10101000801B02289FD828684005F7D568687F2183
:1010200009028843616909020843686011E0296880
:10103000FF20013081432960FFF7B6FD064605E039
:1010400098E0FFF7B1FD801B022884D8286840058E
:10105000F7D42078934E00072ED5A8688006400F5D
:1010600003280AD0A0690028306A16D0012108435D
:101070003062FFF799FD07460BE0306A80071BD509
:10108000A06900289FD017E0FFF78EFDC01B022843
:1010900070D8306A8007F7D50EE040084000306213
:1010A000FFF782FD074604E0FFF77EFDC01B022824
:1010B00060D8306A8007F7D4207840076CD5A868DC
:1010C00000278006400F042818D0E86BC00008D421
:1010D000E96B012000070143E963E96B0140012747
:1010E000009171480168C90519D40168821511433E
:1010F0000160FFF759FD00900DE083E0F069800783
:101100004AD5A06800287DD046E0FFF74DFD009944
:10111000401A02282ED864480068C005F5D5A16899
:10112000012910D004200529F16911D0490849008E
:10113000F161F1698143F161A068002816D0FFF7E1
:1011400033FD00900EE0F06901210843F061F3E700
:101150000143F161F7E7FFF727FD0099411A534872
:1011600081426DD8F0698007F5D50EE0FFF71CFDD0
:10117000009007E064E0FFF717FD0099411A4B4823
:1011800081425DD8F0698007F5D4002F04D0E96B67
:10119000012000078143E963E069002877D0A9684E
:1011A0008906490F022951D00126360602282868EF
:1011B0000DD0B0432860E86880088000E860E868E7
:1011C0003B490840E860FFF7EFFC04463AE0B043D3
:1011D0002860FFF7E9FC074604E0FFF7E5FCC01BC9
:1011E00002282DD828688001F7D4616A206AA26A93
:1011F0000843E16A120211430843216B0843E9687E
:101200002C4A00E041E011400843E8602868304380
:101210002860E868012109070843E860FFF7C4FC7B
:10122000044604E0FFF7C0FC001B022808D8286829
:101230008001F7D52BE0FFF7B7FC001B022801D98E
:101240000320F8BD28688001F5D420E00128F8D0FB
:10125000E868226A8107890F914216D17021626A7B
:101260000140914211D17F21A26A0902014012027C
:1012700091420AD11F214904E26A0140914204D1FE
:10128000400F216B4007884201D00120F8BD0020AB
:10129000F8BD0000001002400024F400F00100201E
:1012A000E40100204010024000700040881300005C
:1012B000FFFFFEEF8C80C11FF8B5040007D00026A9
:1012C00025464035A662687F002802D005E001204F
:1012D000F8BD2E77204600F04BF802236B7720688C
:1012E00001684022914301600721E06809028842B9
:1012F00001D9002201E0012212030F273F02B84268
:1013000002D0884200D0A662276B002F05D1884208
:1013100001D9236301E001202063A168606863694B
:1013200008432169194308430123A1695B0219405D
:101330000843E1690843216A0843A16A0843216818
:101340000860616B606AA36908431B0C0427E168AD
:101350003B40194308432168104348602068C16935
:101360007A029143C1612666012068770020F8BDAA
:1013700010B586B0044614216846FEF7D6FE124921
:10138000206888421DD11148026881140A43026016
:101390000068084005900D484038416B0122114318
:1013A0004163406B694610400590E02000900220A8
:1013B0000190002002900390049005200007FFF7A1
:1013C00053FB06B010BD0000003001404010024049
:1013D000FFB5044683B0012001900020254640352A
:1013E0000090287F0C9F1E4601280FD001202877EF
:1013F000FFF7DAFB0290687F616801280DD0CA1FF1
:10140000FD3A08D1A168002905D102E0022007B009
:10141000F0BD042801D0022006E10498002822D063
:10142000059800281FD0002E1DD0687F042801D009
:10143000052068770020206605992164EE80AE8043
:101440000499A163E687A687E06420650721E06828
:101450000902884201D8012E07D920684268012379
:101460001B039A4306E00120DEE020684268012366
:101470001B031A43426020680268520603D40268C4
:1014800040231A430260E0688842606845D900281A
:1014900001D0012E3AD1A06B21680088C860A06BF2
:1014A000801CA063E08F401EE0872FE020688168E9
:1014B000890710D5E18F00290DD0019901290AD1A2
:1014C000A16B0988C160A06B801CA063E08F401EE7
:1014D000E0870020019020688168C9070DD0E98865
:1014E00000290AD0C068216C0880206C801C206410
:1014F000E888401EE88001200190FFF755FB014677
:101500000298081AB84201D3781C72D1E08F0028E3
:10151000CCD1E8880028C9D174E0002801D0012E80
:101520006AD1E08F0128A06B08D921680088C860C3
:10153000A06B801CA063E08F801E07E0216800780C
:101540000873A06B401CA063E08F401EE08753E04F
:101550002068816889071BD5E18F002918D001997F
:10156000012915D1E18F0129A16B07D90988C16033
:10157000A06B801CA063E08F801E06E009780173D9
:10158000A06B401CA063E08F401EE087002001900C
:1015900020688168C90723D0E988002920D0E9881C
:1015A000012912D9C068216C0880206C801C20643D
:1015B000E888801EE880E88801280FD82068426803
:1015C000012109030A43426008E0007B216C087096
:1015D000206C401C2064E888401EE88001200190B7
:1015E000FFF7E2FA01460298081AB84202D3781CC3
:1015F00002D018E0002F16D0E08F0028A8D1E8888C
:101600000028A5D139462046029A00F0B5FB0028F3
:1016100003D0012000902020206601206877002060
:1016200028770098F3E603200090F6E7094910B503
:10163000401E884201D9012010BD074C6061032182
:10164000081F01F035F80020A0610720206100206C
:1016500010BD0000FFFFFF0000E000E07047704792
:1016600070477047F8B503680446DA6918689968E6
:1016700016072546360F8035002E60D0584EFF27BE
:1016800021370E400740374372D0D70706D0C70531
:1016900004D501271F62AB683B43AB60930708D5B5
:1016A000CB0706D0276802233B62AB6804273B4385
:1016B000AB60530708D5CB0706D0276804233B62ED
:1016C000AB6802273B43AB60130709D520230340D7
:1016D000334305D0266808233362AE681E43AE60EC
:1016E000AB68002B38D092060AD520221040D205D4
:1016F0001140084304D0E16E002901D020468847FC
:10170000A86821688968490601D4000729D52046C0
:1017100000F0C2FC2068816849061ED5826840211D
:101720008A438260A06F002817D02E498163A06F82
:10173000FFF748F900280FD0A06F816B0BE09606E9
:1017400016D5012720263F0706400F403E430FD005
:10175000E16E22E020468847F8BD2046FFF781FF72
:10176000F8BD2046FFF77DFF0020A860F8BDFFE729
:10177000D60208D54E0206D5012000051862204683
:10178000FFF76EFFF2E716060AD501278026FF0550
:10179000064039400E4303D0216F0029DAD1E5E736
:1017A00051060DD541060BD51A68204640218A43C3
:1017B0001A60202129600021216700F08FF9D5E708
:1017C000110205D5410003D52046FFF748FFCDE7BC
:1017D000D101CBD50028C9DA2046FFF73FFFC5E786
:1017E000010000108520000870B5040006D02046D6
:1017F000803005460068002802D007E0012070BD57
:1018000000217C200155204600F026F82420286085
:1018100020680168490849000160204600F050FD39
:101820000128ECD0A06A002802D0204600F092FBEC
:10183000206841680922D202914341602068816892
:101840002A229143816020680168012211430160CE
:10185000204600F0E5FB70BD10B586B004461421AB
:101860006846FEF762FC15492068884224D1144876
:10187000C26B012149040A43C263C26B0A4005924C
:10188000426B01210A434263406B0491084005907A
:101890000C2000900220019000200290039005206F
:1018A00069460007FFF7E0F8002211461C20FFF709
:1018B000E3F91C20FFF7D4F906B010BD0044004046
:1018C00000100240F0B5064680367368202B76D1B2
:1018D00000290AD0002A08D08568DC01A54206D17B
:1018E0000369002B03D1CB0701D00120F0BD0346D3
:1018F00060331F7F012F62D001271F77816501466A
:1019000040318A83CA830027C766FF27A54204D1D6
:101910000569002D12D12B4D09E0002D09D00127BA
:101920003F07BD4233D10569002D05D03F250D8409
:1019300005E00569002D01D07F25F8E70F8400251B
:10194000B560222777600768BE68BC4601273E4322
:101950006746BE600127466E7F07BE421BD1098DD8
:10196000914218D88168A14202D10169002910D0A2
:101970001549C1661D7701680A68FF2301331A43C0
:101980000A60006881681A051143816012E0002531
:10199000CDE70E49EDE78168A14202D10169002936
:1019A0000BD00B49C1661D7700680168FF22213208
:1019B000114301600020F0BD01E00649F2E702207A
:1019C000F9E70000FF0100002122000821210008A2
:1019D000C1210008C120000810B5006804498842F0
:1019E00004D1012203490448FFF76CFF10BD000039
:1019F00000440040E00100205C020020FFB50746E3
:101A000004468037386885B00D46202864D1002D03
:101A10000CD00798002809D00120A168000381425A
:101A200007D12069002804D1E80702D0012009B0BD
:101A3000F0BD204660300290007F01284CD0029813
:101A4000012101770020B86021203860FFF7ACF851
:101A50000190264640360798B0820798F082012010
:101A6000A1680003814202D12069002802D00395B9
:101A7000002515E00020039012E00022802120467E
:101A800000F08EFD002818D10398002817D0216897
:101A9000007888620398401C0390F08A401EF08210
:101AA000F08A019B002808980090E6D1002240218E
:101AB000204600F075FD002808D00320B7E72888ED
:101AC0002168C005C00D8862AD1CE6E720203860A3
:101AD000029900200877AAE70220A8E77047FEE7EE
:101AE000F0B587B014216846FEF71FFB1E48416B16
:101AF000022529434163416B29400591416B012631
:101B000031434163406B3246304005908021174895
:101B1000FFF744F805273F07012210213846FFF759
:101B20003DF803210022C9023846FFF737F880202C
:101B30000024009002946946019603940B48FEF736
:101B400093FF0B480090029469460196039438462F
:101B5000FEF78AFF01946946044800950294FEF757
:101B600083FF07B0F0BD00000010024000040050E9
:101B70001018000010B511480F490160FF21053110
:101B800041600021072212028160C26001610122CE
:101B9000426152028261016220224162C26181621D
:101BA00007220163C2624163FFF786FB002801D070
:101BB000FEF706FF10BD000000300140F8010020D4
:101BC00010B50D480B490160E12149024160002137
:101BD0008160C16001618161C16101620C22416269
:101BE00042618162FFF700FE002801D0FEF7E8FEA7
:101BF00010BD0000004400405C020020704700005F
:101C000070B501240525E4022D070022214628464F
:101C1000FEF7C4FF2320FEF715FF012221462846C8
:101C2000FEF7BCFF0148FEF70DFF70BD1702000074
:101C300070470000FEB505270D4606463F07002207
:101C400010213846FEF7AAFF684606717D24E4009D
:101C500001232A4601A91B480094FFF7B9FB300570
:101C6000000F01016846017101232A4601A91548A8
:101C70000094FFF7ADFB0A2001F0A2F901232A46E8
:101C800011A110480094FFF7A3FB01236A1C0EA1C9
:101C90000C480094FFF79CFB0123AA1C0AA10948E9
:101CA0000094FFF795FB0123EA1C07A10548009467
:101CB000FFF78EFB012210213846FEF76FFF01204F
:101CC000FEBD0000F80100203078666600000000CC
:101CD000F0B5044617460E46052085B000221021B7
:101CE0000007FEF75BFF684604727D25ED000123C7
:101CF00003AA02A91F480095FFF76AFB2005000F01
:101D00000101684680310172012303AA02A9194822
:101D10000095FFF75DFB6846007A2118684601715F
:101D20000A2001F04DF900240EE03119012303AA25
:101D300010480095FFF74CFB6946305D0979401863
:101D40006946641C0871E4B2BC42EED36946087966
:101D50000123C043087103AA01A906480095FFF7B3
:101D600037FB0520012210210007FEF717FF05B001
:101D7000F0BD0000F8010020F8B50F460B461546EF
:101D80000092032104460022C90200F01BF820261D
:101D9000002812D13B46002280212046009500F009
:101DA00059F8002809D103213B4600224902204668
:101DB000009500F007F8002803D0206E304320661D
:101DC0000320F8BDF8B51D4617460E46044610E040
:101DD000032149028E4202D1002F00D1007B681CF2
:101DE00007D0FEF7E1FE0699401AA84208D2002D5E
:101DF00006D0206881683140B942E9D10020F8BDA1
:101E000020684168E022914341606068C11FFD394C
:101E10000CD10121A068C903884202D0491188422F
:101E200004D1206801684022914301600120A16A29
:101E30004003814207D121680A6882430A60216811
:101E40000A6802430A60012040346077002020774E
:101E50000320F8BDF8B51D4617460E46044609E0B6
:101E6000681C07D0FEF7A0FE0699401AA8420BD2C4
:101E7000002D09D020688168304688432ED000208C
:101E8000B842EDD10020F8BD20684168E0229143BE
:101E900041606068C11FFD390CD10121A068C903F0
:101EA000884202D04911884204D12068016840224A
:101EB000914301600120A16A4003814207D121685A
:101EC0000A6882430A6021680A6802430A600120A6
:101ED00040346077002020770320F8BD0120CFE751
:101EE000704710B5FEF766FE10BD30B591B03421D5
:101EF0006846FEF71AF9002401200D940E940F9401
:101F000040021094FEF7BCFE0225E8010390009504
:101F10004020059008200A9080030B90079500034D
:101F200004940C90089509946846FEF7D5FF0720A5
:101F30000D900F9402210E9510940DA8FEF7C6FE89
:101F400011B030BD01200249C00688607047000012
:101F500000ED00E010B5018DC90707D001684A689F
:101F600001235B049A43C36A1A434A60018D8907BF
:101F700007D501684A6801231B049A43036B1A437F
:101F80004A60018D490707D501684A6801239B040F
:101F90009A43436B1A434A60018D090707D50168CC
:101FA0004A680123DB039A43836B1A434A60018D1D
:101FB000C90607D50268916801231B039943C36BC7
:101FC00019439160018D890607D501688A6801234C
:101FD0005B039A43036C1A438A60018D490612D54C
:101FE00003685A6801210905446C8A4322435A60F8
:101FF000426C8A4207D10268516803235B0599430A
:10200000836C19435160018D090607D501684A6840
:102010000123DB04C06C9A4302434A6010BD0000F8
:10202000FEB50546002680350446AE60FEF7BCFDD1
:10203000019020680068124F000709D50121009720
:10204000002249052046019B00F0AAFA00280DD184
:102050002068006840070BD5012100970022890500
:102060002046019B00F09CFA002801D00320FEBD11
:10207000202028606860603426770020FEBD0000C4
:10208000FFFFFF0110B5806A002201464031CA837C
:10209000CA82FFF7E6FA10BD01680A68FF23213300
:1020A0009A430A6001688A68044B1A408A602022B9
:1020B00084210A500021C16670470000FEFFFFEF37
:1020C00070B501464031024680320B8C556814468B
:1020D0000268222D04D0906908210843906170BDE8
:1020E000526A856D1A402A80826D921C8265CA8B65
:1020F000521ECA83C98B0029F1D101680A68FF23E7
:1021000021339A430A6001688A68520852008A6043
:10211000202161600021C166FFF75EFC70BD0000F8
:10212000F8B50546403504462F8C80300090406855
:10213000222805D020688169082211438161F8BDF9
:102140002E8D22E02068406AA16D38400880A06D85
:10215000801CA065E88B401EE883E88B002812D124
:1021600020680168FF220132914301602068816884
:10217000114A114081600099202048600020E066EB
:102180002046FFF729FC761EB6B2002EDAD1E88B86
:102190000028D4D0298D8142D1D9206881680122BC
:1021A0001207914381600548E0662068016820229B
:1021B00011430160F8BD0000FEFFFFEFC1200008E1
:1021C00070B501464031024680320B8C556814468A
:1021D0000268222D04D0906908210843906170BDE7
:1021E000526A1A40836D1A70826D521C8265CA8BC6
:1021F000521ECA83C98B0029F1D101680A68FF23E6
:1022000021339A430A6001688A68520852008A6042
:10221000202161600021C166FFF7DEFB70BD000078
:10222000F8B50546403504462F8C80300090406854
:10223000222805D020688169082211438161F8BDF8
:102240002E8D22E02068406AA16D38400870A06D94
:10225000401CA065E88B401EE883E88B002812D163
:1022600020680168FF220132914301602068816883
:10227000114A114081600099202048600020E066EA
:102280002046FFF7A9FB761EB6B2002EDAD1E88B06
:102290000028D4D0298D8142D1D9206881680122BB
:1022A0001207914381600548E0662068016820229A
:1022B00011430160F8BD0000FEFFFFEFC1210008DF
:1022C000F8B5044680682169E2690843616900261F
:1022D00011430843616E226801431068A94B1840FE
:1022E0000843106021684868032212039043E268A3
:1022F00010434860A169206A226808439168A24B94
:102300001940014391602068C16A626A09090901A4
:102310001143C1629D49206888420FD19C484069A1
:102320008007800F10D0012804D002280CD0032889
:1023300009D101E0042007E0082005E09549884222
:1023400001D1002000E010200122D203E169D51163
:10235000914B924F91426FD1002806D0022835D080
:1023600004287AD0082869D17AE0FEF75BFD76E090
:10237000012815D0022815D0032815D0042815D01F
:10238000052815D0062815D0072815D0082815D0FF
:10239000092815D00A2815D00B2814D0012512E0E1
:1023A000022510E004250EE006250CE008250AE0D1
:1023B0000A2508E00C2506E0102504E0202502E0AF
:1023C000402500E08025294610461BE0606A002871
:1023D00015D001282AD002282AD003282AD0042880
:1023E0002DD005282DD006282DD007282DD008283F
:1023F0002DD009282DD00A282DD00B2800D001255A
:1024000029461846FDF774FE616840004A088018A6
:10241000FDF76EFE80B201461039B9420ED85F4911
:10242000491C01400007400F08437FE00225E7E711
:102430000425E5E70625E3E716E00EE08AE0082537
:10244000DEE70A25DCE70C25DAE71025D8E72025AA
:10245000D6E74025D4E78025D2E7FEF7F7FC024611
:10246000606A00289AD083E7002806D0022835D079
:10247000042874D0082879D174E0FEF7D3FC70E00A
:10248000012815D0022815D0032815D0042815D00E
:10249000052815D0062815D0072815D0082815D0EE
:1024A000092815D00A2815D00B2814D0012512E0D0
:1024B000022510E004250EE006250CE008250AE0C0
:1024C0000A2508E00C2506E0102504E0202502E09E
:1024D000402500E08025294610461BE0606A002860
:1024E00015D0012825D0022825D0032825D004287E
:1024F00025D0052825D0062825D0072825D008284E
:1025000025D0092827D00A2827D00B2800D001255C
:1025100029461846FDF7ECFD61684A088018FDF76A
:10252000E7FD80B201461039B9421FD82168C86062
:102530001DE00225ECE70425EAE70625E8E7082583
:10254000E6E70A25E4E70C25E2E71025E0E7202589
:10255000DEE704E00AE04025DAE78025D8E7FEF769
:1025600075FC0246606A0028A0D089E70126204653
:1025700001214030418501850020E066206730461A
:10258000F8BD0000F369FFCFFFF4FF1100380140F0
:1025900040100240004400400024F400EFFF00001F
:1025A000FFB581B017460E4604460A9D09E0681C37
:1025B00007D0FEF7F9FA0499401AA8420CD8002D6A
:1025C0000AD02068C169304688431AD00020B8423A
:1025D000EDD0002005B0F0BD20680168FF22A132D7
:1025E0009143016020688168490849008160202189
:1025F0002046803001604160002060342077032055
:10260000E8E70120E3E7000010B509480178094830
:10261000232902D02A2902D005E0012200E000226D
:102620008021FEF7BBFA0448FFF71CF810BD00003C
:10263000E0010020000400505C02002070B500247E
:102640007D260546F6002919334601220348FFF787
:10265000D5F9641C285D0028F5D170BD5C0200200E
:102660000FB410B503A9044B044A029800F00CF90A
:1026700010BC08BC04B01847D52F0008F401002096
:102680002021020C01D010211046020A01D0104670
:102690000839020901D01046091F820801D01046EE
:1026A000891E420801D0881E7047081A7047000032
:1026B0008307FF22DB0E9A408907090E9940002804
:1026C00008DB830809489B001B18186890430843DF
:1026D000186070470007000F0838830804489B0003
:1026E0001B18D86990430843D861704700E400E0A4
:1026F00000ED00E002E008C8121F08C1002AFAD16C
:1027000070477047002001E001C1121F002AFBD171
:1027100070470000F0B51FB486B00998089A030D01
:102720000021024314D05148514A1818504305144F
:102730001198012810981AD0281A401C00264D4FD5
:102740004D49009601910490002812DA444211E0AC
:102750001198012449A3012801D11098C14306987A
:10276000119A84600360C26041600BB0F0BD4042CA
:10277000E4E70446210500203F4A001C5141039133
:10278000029012E0E00707D032463B4601990098DC
:10279000FDF7A8FE0191009032463B4610461946CF
:1027A000FDF7A0FE06460F466410002CEAD10498FF
:1027B000039B0028029A0999089806DAFDF792FE11
:1027C000019B009AFDF78EFE05E0FDF7C3FC019B1F
:1027D000009AFDF7BFFC04460E460022284BFDF789
:1027E00009FF03D80020C043014607E00022254B23
:1027F00020463146FDF7C4FDFDF7DCFE102409E05C
:10280000002C0ADB0A220023FDF72AFD079B303249
:102810001A55641E02460A43F2D11122641C079B1A
:10282000121B1C19119B012B03D0012308430ED14D
:102830000AE0084304D0112010900020119077E79F
:102840001098151A6D1E0BE01098824202DD0023CD
:102850006D1C03E0824201DA00236D1E002BEED0D6
:10286000069811998260C16030C07EE701FCFFFFCD
:10287000104D0000000014400000F03F3000000048
:102880000000F0430000E03FFFB597B0064600258A
:1028900018E2252877D100242746FD49049400E05A
:1028A0000443761C32780120203A90400842F7D148
:1028B00030782A280ED00222307801463039092992
:1028C00016D804990A235943303940181443761C0A
:1028D0000490F1E7189802C804911890002904DACE
:1028E0000120400304434842049002200443761C24
:1028F00030782E2814D1042004437078761C2A28BE
:1029000009D11898761C80C8189009E00A214F4315
:10291000303FC719761C3078014630390929F5D97E
:1029200030786C2810D006DC4C281AD068280ED0DD
:102930006A2817D104E0742813D07A2812D110E045
:102940000120400504430CE00121090501E00321B9
:1029500009050C437178814203D101200005241838
:10296000761C761C3078119066280BD013DC582822
:102970007DD009DC00287BD04528F6D04628F4D04D
:1029800047281AD1A5E118E0632835D0642870D013
:10299000652812D19DE170286CD008DC6728F1D041
:1029A00069287BD06E280DD06F2806D1BAE0732835
:1029B0002ED0752871D0782859D01A9A1999904735
:1029C0006D1C7EE16002400F022809D003280DD063
:1029D0000428189801680DD00D60001D189070E152
:1029E0001898EA1701680D604A60F6E718980168C0
:1029F0000D80F2E70D70F0E718986A4601781172C1
:102A0000001D18900020507202A80090012005E0DF
:102A1000189802C8189000200091C04361070DD596
:102A2000002101E00199491C0191B94212DA814269
:102A3000F8DB009A515C0029F4D10BE0002101E0A1
:102A40000199491C01918142FADB019A0099895C44
:102A50000029F5D1019904981A9B471A2146384656
:102A6000199A00F097FA0199401945180BE04FE0C8
:102A70002CE113E04EE0009800990078491C009189
:102A80001A9A199990470198401E0190401CF2D162
:102A9000214638461A9B199A10E137E00A20002196
:102AA000009001916002410F022907D0189A01CAD3
:102AB0001892C2179446032908D00AE01898C01D3E
:102AC000C108C90005C91891944607E000B2C217B1
:102AD0009446042902D140B2C1178C4600226146B7
:102AE000944506DA0A460021404291418C462D2148
:102AF00002E0210504D52B216A461173012103E070
:102B0000E10701D02021F7E7029155E00A200AE011
:102B1000102008E0102000900021042004430191BF
:102B2000082703E008200021019100906002410F76
:102B3000022907D0189A01CA189200229446032944
:102B400008D008E01898C01DC108C90005C918912F
:102B5000944603E080B2042900D1C0B20021029162
:102B6000210729D51199702906D0009A1021019BBF
:102B70004A401A4305D00EE040216A4611730121F4
:102B800008E06146014306D030216A46117311996D
:102B9000517302210291009A0821019B4A401A4375
:102BA0000AD16146014301D1610705D530216A464A
:102BB000117301217F1E02911199582904D035A16A
:102BC0000E910DA90D910DE037A1F9E76146019B2A
:102BD000009AFDF745FB0E9B8C469B5C0D9A521E9E
:102BE0000D92137061460143F0D10D9805A9081AA2
:102BF00020300190600703D501200004844300E0E9
:102C000001270198874201DD381A00E00020019970
:102C100000904118029809180498401A0490E003A3
:102C200006D421461A9B199A049800F0B3F9451965
:102C3000002706E003A81A9AC05D199990476D1CF9
:102C40007F1C02988742F5DBE0030CD521461A9BD6
:102C5000199A049800F09EF9451904E01A9A302058
:102C6000199990476D1C0099481E00900029F5DCC9
:102C700008E00D980D990078491C0D911A9A199940
:102C800090476D1C0199481E01900029F1DC63E119
:102C90000928010030313233343536373839616232
:102CA00063646566000000003031323334353637F6
:102CB00038394142434445460000000000F05AF9CB
:102CC0004519761C3078002800D0E2E528461BB074
:102CD000F0BD600700D406271898C01DC108C900C0
:102CE00048680A680831C30FDB071891190001D042
:102CF0009CA108E0210501D59BA104E0E10701D0DA
:102D00009AA100E09AA1430011985B0810916528F0
:102D10000CD006DC452809D046281DD0472841D1D3
:102D200041E0662818D067283CD13CE00021112FF3
:102D300001DB112000E0781C0191009008A911A886
:102D4000FFF7E8FC139905910021119A15927F1C59
:102D500012980197009150E00120C00703900120D4
:102D6000019008A9009711A8FFF7D4FC139A1499B1
:102D700005920022119B009212981593059A0192D8
:102D8000002901D0104602E0791C40180190381A41
:102D900001D5019804E04042401E0090781C01904B
:102DA000C01B029043E0012F00DA01270021112F00
:102DB00001DD112000E038460191009008A911A81A
:102DC000FFF7A8FC13990591119A0021129815920A
:102DD0000091019721070CD40599B94201DB0199B3
:102DE00000E00191012904DD159A491E515C30294A
:102DF00006D0B84201DA011D05DA0121029115E081
:102E00000199491EEDE7002805DC00994118009161
:102E10000199091A03E0019A411C914200DD0191D8
:102E20000099401A401C02900120C007039020071F
:102E300006D402990198814202DB0020C04302902F
:102E400000206946C87707AF012103980337C907F7
:102E5000884224D0022011902B2012900398002841
:102E60000CDA404203902D20129007E00A210398CB
:102E7000FDF73EF930317F1E039039701199481EDD
:102E800011900029F2DC03980028EFD1791E1298E6
:102E900008703078202108404530BF1E387006A8E1
:102EA000C01BC01D039010980078002800D001209E
:102EB000019941180298C017091803980918049835
:102EC000401A401E0490E00306D421461A9B199A2A
:102ED000049800F05FF8451910980078002803D096
:102EE0001A9A199990476D1CE00324D521461A9B24
:102EF000199A049800F04EF845191CE00098002833
:102F000007DB00990598884203DD1598405C199904
:102F100001E0199930201A9A904700986D1C401CC6
:102F200000900298401E0290002804D11A9A2E2088
:102F3000199990476D1C0199481E01900029DDDC0C
:102F400005E038781A9A7F1C199990476D1C0399EF
:102F5000481E03900029F4DC21461A9B199A049814
:102F6000ACE600002D0000002B0000002000000057
:102F700000000000F8B5044600251E4617468804E8
:102F800004D405E039462020B0476D1C641EF9D5F5
:102F90002846F8BDFFB50446002581B01E46C8038B
:102FA00001D5302700E02027880404D505E0384605
:102FB0000399B0476D1C641EF9D5284605B0F0BDD5
:102FC00008B58001C008009000BF0098411E009124
:102FD000FAD208BD13B57D23DB0001226946024801
:102FE000FEF70CFD00981CBD5C020020FDF7EAFD19
:102FF000FEF77BFFFEF774FDFEF7BCFDFEF7E0FD7C
:10300000012217491748FEF75DFC0122802116486E
:10301000FDF7C4FDFEF7F4FD1448FDF713FD14A001
:10302000FFF70CFB7D24E4002046FDF70BFDFDF7C8
:1030300077FC2046FDF706FD0F48FFF7FFFA204614
:10304000FDF700FD0C483230FFF7F8FAFDF782FC7F
:10305000FDF756FB2046FDF7F5FC00F00FF8FCE706
:10306000E00100205C020020000400501027000056
:10307000415445300D0A00007D010020FEB5644931
:103080000B20FEF7D7FD6248FDF75AF8604D00BAF5
:10309000000AE9780002084300010009A021FDF7B9
:1030A00027F82C46103C208029460720FEF7C2FD59
:1030B0002846FDF745F800BA000AE97800020843FF
:1030C00000010009A021FDF713F8608029460C20BB
:1030D000FEF7B0FD2846FDF733F800BA000AE9789C
:1030E0000002084300010009A021FDF701F8A080BB
:1030F00029460820FEF79EFD2846FDF721F800BA74
:10310000000AE9780002084300010009A021FCF749
:10311000EFFFE08029460D20FEF78CFD2846FDF7E5
:103120000FF800BA000AE97800020843000100091C
:10313000A021FCF7DDFF208129460920FEF77AFD5A
:103140002846FCF7FDFF00BA000AE97800020843B0
:1031500000010009A021FCF7CBFF6081681DFFF78B
:103160006DFA7D20C000FDF76DFC6088FDF76AF800
:10317000284F00223B46FCF7EDFF05460E4620880F
:10318000FDF760F800223B46FCF7E4FF02460B46E1
:1031900021A001960095FFF763FAE088FDF752F849
:1031A00000223B46FCF7D6FF05460E46A088FDF7F9
:1031B00049F800223B46FCF7CDFF02460B461EA015
:1031C00001960095FFF74CFA6089FDF73BF8002265
:1031D0003B46FCF7BFFF05460E462089FDF732F857
:1031E00000223B46FCF7B6FF02460B461AA00196AA
:1031F0000095FFF735FA7D20C000FDF723FC1A216A
:103200001CA0FFF72DFA7D20C000FDF71BFCFEBDC2
:103210004401002000408F407B226E4961223A2504
:10322000382E33662C0D0A226E5561223A25382E2F
:1032300033662C0D0A000000226E4962223A2538BE
:103240002E33662C0D0A226E5562223A25382E3313
:10325000662C0D0A00000000226E4963223A2538D0
:103260002E33662C0D0A226E5563223A25382E33F2
:10327000667D0000256300000000000000000000E3
:10328000000000000000000000000000000000003E
:10329000000000000000000001000000020000002B
:1032A000030000000400000006000000070000000A
:1032B00008000000090000000000000000000000FD
:1032C00000000000000000000100000002000000FB
:1032D0000300000004000000F83200080000002095
:1032E000F8010000A806000820340008F8010020BA
:1032F000F00400000427000813223A182C41542B34
:10330000514D544346473D22616C69617574682292
:103310002C302C226832736A64307A7049785A22D1
:103320002C22524E373330320958246436663065C9
:103330003439303231343966373932353739363508
:103340006262633136306563646335220D0A521E52
:103350004F50454E3D491819696F742D61732D6D9D
:103360007174742E636E2D7368616E676861692E67
:103370006D781079756E63732E636F6D222C313802
:1033800038333B3C434F4E3B597679181E505542DB
:1033900045581949029F222F7379732FA84A2F305D
:1033A000181F2F7468696E672F6576656E742F70AD
:1033B000726F70657274792F706F7374222C393646
:1033C0004D380C7B226D6574686F64223A222B683D
:1033D0000A2E736572766963652E2D1911192C2BCF
:1033E0002269221C3238340B000B17706172616D38
:1033F00073223A7B2279A1999F09119B1A756B8ED2
:103400002F64617461D53A53340A1E31300B292C74
:1034100030324C636D643141320482015324F40034
:04000005080000C12E
:00000001FF
